{
  "contractName": "BlockMiner",
  "abi": [
    {
      "inputs": [],
      "payable": false,
      "stateMutability": "nonpayable",
      "type": "constructor"
    },
    {
      "constant": false,
      "inputs": [],
      "name": "mine",
      "outputs": [],
      "payable": false,
      "stateMutability": "nonpayable",
      "type": "function"
    }
  ],
  "bytecode": "0x6080604052348015600f57600080fd5b50600080819055506096806100256000396000f3fe608060405260043610603f576000357c0100000000000000000000000000000000000000000000000000000000900463ffffffff16806399f4b251146044575b600080fd5b348015604f57600080fd5b5060566058565b005b6001600080828254019250508190555056fea165627a7a7230582095a9df24895aff335f0e4d91572fb6baa1468e0584ca8f56b21d634ae8c348170029",
  "source": "pragma solidity ^0.5.0;\n// file: BlockMinder.sol\n\n// used to \"waste\" blocks for truffle tests\ncontract BlockMiner {\n\n    uint blocksMined;\n\n    constructor() public {\n        blocksMined = 0;\n    }\n\n    function mine() public {\n        blocksMined += 1;\n    }\n}",
  "sourcePath": "/Users/shouhewu/devWorkspace/ionchain/IPOSContract/contracts/blockMiner.sol",
  "compiler": {
    "name": "solc",
    "version": "0.5.0+commit.1d4f565a.Emscripten.clang"
  },
  "schemaVersion": "3.0.5",
  "updatedAt": "2019-03-28T08:30:09.198Z",
  "devdoc": {
    "methods": {}
  },
  "userdoc": {
    "methods": {}
  }
}