{
  "contractName": "IPOS",
  "abi": [
    {
      "constant": true,
      "inputs": [
        {
          "name": "",
          "type": "address"
        }
      ],
      "name": "balances",
      "outputs": [
        {
          "name": "",
          "type": "uint256"
        }
      ],
      "payable": false,
      "stateMutability": "view",
      "type": "function"
    },
    {
      "constant": true,
      "inputs": [
        {
          "name": "",
          "type": "address"
        },
        {
          "name": "",
          "type": "uint256"
        }
      ],
      "name": "transferIns",
      "outputs": [
        {
          "name": "amount",
          "type": "uint256"
        },
        {
          "name": "fromBlock",
          "type": "uint256"
        }
      ],
      "payable": false,
      "stateMutability": "view",
      "type": "function"
    },
    {
      "constant": true,
      "inputs": [
        {
          "name": "",
          "type": "address"
        }
      ],
      "name": "genesisMintPower",
      "outputs": [
        {
          "name": "",
          "type": "uint256"
        }
      ],
      "payable": false,
      "stateMutability": "view",
      "type": "function"
    },
    {
      "constant": true,
      "inputs": [],
      "name": "stakeMinAge",
      "outputs": [
        {
          "name": "",
          "type": "uint256"
        }
      ],
      "payable": false,
      "stateMutability": "view",
      "type": "function"
    },
    {
      "constant": false,
      "inputs": [],
      "name": "deposit",
      "outputs": [
        {
          "name": "",
          "type": "bool"
        }
      ],
      "payable": true,
      "stateMutability": "payable",
      "type": "function"
    },
    {
      "constant": false,
      "inputs": [
        {
          "name": "_amount",
          "type": "uint256"
        }
      ],
      "name": "withdraw",
      "outputs": [
        {
          "name": "",
          "type": "bool"
        }
      ],
      "payable": false,
      "stateMutability": "nonpayable",
      "type": "function"
    },
    {
      "constant": true,
      "inputs": [
        {
          "name": "_address",
          "type": "address"
        }
      ],
      "name": "mintPower",
      "outputs": [
        {
          "name": "_power",
          "type": "uint256"
        }
      ],
      "payable": false,
      "stateMutability": "view",
      "type": "function"
    }
  ],
  "bytecode": "0x6080604052600a60005534801561001557600080fd5b5061132e806100256000396000f3fe608060405260043610610083576000357c0100000000000000000000000000000000000000000000000000000000900463ffffffff16806327e235e3146100885780632e1a7d4d146100ed57806365476ea314610140578063be38ffd8146101b6578063cbd8877e1461021b578063d0e30db014610246578063e18128e914610268575b600080fd5b34801561009457600080fd5b506100d7600480360360208110156100ab57600080fd5b81019080803573ffffffffffffffffffffffffffffffffffffffff1690602001909291905050506102cd565b6040518082815260200191505060405180910390f35b3480156100f957600080fd5b506101266004803603602081101561011057600080fd5b81019080803590602001909291905050506102e5565b604051808215151515815260200191505060405180910390f35b34801561014c57600080fd5b506101996004803603604081101561016357600080fd5b81019080803573ffffffffffffffffffffffffffffffffffffffff16906020019092919080359060200190929190505050610d9e565b604051808381526020018281526020019250505060405180910390f35b3480156101c257600080fd5b50610205600480360360208110156101d957600080fd5b81019080803573ffffffffffffffffffffffffffffffffffffffff169060200190929190505050610dde565b6040518082815260200191505060405180910390f35b34801561022757600080fd5b50610230610df6565b6040518082815260200191505060405180910390f35b61024e610dfc565b604051808215151515815260200191505060405180910390f35b34801561027457600080fd5b506102b76004803603602081101561028b57600080fd5b81019080803573ffffffffffffffffffffffffffffffffffffffff1690602001909291905050506110db565b6040518082815260200191505060405180910390f35b60016020528060005260406000206000915090505481565b600061033982600160003373ffffffffffffffffffffffffffffffffffffffff1673ffffffffffffffffffffffffffffffffffffffff168152602001908152602001600020546112c390919063ffffffff16565b600160003373ffffffffffffffffffffffffffffffffffffffff1673ffffffffffffffffffffffffffffffffffffffff1681526020019081526020016000208190555060008290506000600260003373ffffffffffffffffffffffffffffffffffffffff1673ffffffffffffffffffffffffffffffffffffffff1681526020019081526020016000205411156106675780600260003373ffffffffffffffffffffffffffffffffffffffff1673ffffffffffffffffffffffffffffffffffffffff168152602001908152602001600020541015156105ce5761046381600260003373ffffffffffffffffffffffffffffffffffffffff1673ffffffffffffffffffffffffffffffffffffffff168152602001908152602001600020546112c390919063ffffffff16565b600260003373ffffffffffffffffffffffffffffffffffffffff1673ffffffffffffffffffffffffffffffffffffffff16815260200190815260200160002081905550600360003373ffffffffffffffffffffffffffffffffffffffff1673ffffffffffffffffffffffffffffffffffffffff1681526020019081526020016000206040805190810160405280600260003373ffffffffffffffffffffffffffffffffffffffff1673ffffffffffffffffffffffffffffffffffffffff16815260200190815260200160002054815260200161053d6112dc565b81525090806001815401808255809150509060018203906000526020600020906002020160009091929091909150600082015181600001556020820151816001015550505060009050600260003373ffffffffffffffffffffffffffffffffffffffff1673ffffffffffffffffffffffffffffffffffffffff16815260200190815260200160002060009055610666565b610620600260003373ffffffffffffffffffffffffffffffffffffffff1673ffffffffffffffffffffffffffffffffffffffff16815260200190815260200160002054826112c390919063ffffffff16565b9050600260003373ffffffffffffffffffffffffffffffffffffffff1673ffffffffffffffffffffffffffffffffffffffff168152602001908152602001600020600090555b5b60006106716112dc565b905060008090505b600360003373ffffffffffffffffffffffffffffffffffffffff1673ffffffffffffffffffffffffffffffffffffffff16815260200190815260200160002080549050811080156106ca5750600083115b156109d857610741600054600360003373ffffffffffffffffffffffffffffffffffffffff1673ffffffffffffffffffffffffffffffffffffffff1681526020019081526020016000208381548110151561072157fe5b9060005260206000209060020201600101546112e490919063ffffffff16565b8211156109cb5782600360003373ffffffffffffffffffffffffffffffffffffffff1673ffffffffffffffffffffffffffffffffffffffff1681526020019081526020016000208281548110151561079557fe5b9060005260206000209060020201600001541015156108ea5761081e83600360003373ffffffffffffffffffffffffffffffffffffffff1673ffffffffffffffffffffffffffffffffffffffff168152602001908152602001600020838154811015156107fe57fe5b9060005260206000209060020201600001546112c390919063ffffffff16565b600360003373ffffffffffffffffffffffffffffffffffffffff1673ffffffffffffffffffffffffffffffffffffffff1681526020019081526020016000208281548110151561086a57fe5b9060005260206000209060020201600001819055506000925081600360003373ffffffffffffffffffffffffffffffffffffffff1673ffffffffffffffffffffffffffffffffffffffff168152602001908152602001600020828154811015156108d057fe5b9060005260206000209060020201600101819055506109ca565b61095a600360003373ffffffffffffffffffffffffffffffffffffffff1673ffffffffffffffffffffffffffffffffffffffff1681526020019081526020016000208281548110151561093957fe5b906000526020600020906002020160000154846112c390919063ffffffff16565b9250600360003373ffffffffffffffffffffffffffffffffffffffff1673ffffffffffffffffffffffffffffffffffffffff168152602001908152602001600020818154811015156109a857fe5b9060005260206000209060020201600080820160009055600182016000905550505b5b8080600101915050610679565b5060008090505b600360003373ffffffffffffffffffffffffffffffffffffffff1673ffffffffffffffffffffffffffffffffffffffff1681526020019081526020016000208054905081108015610a305750600083115b15610d3f57610aa7600054600360003373ffffffffffffffffffffffffffffffffffffffff1673ffffffffffffffffffffffffffffffffffffffff16815260200190815260200160002083815481101515610a8757fe5b9060005260206000209060020201600101546112e490919063ffffffff16565b82111515610d325782600360003373ffffffffffffffffffffffffffffffffffffffff1673ffffffffffffffffffffffffffffffffffffffff16815260200190815260200160002082815481101515610afc57fe5b906000526020600020906002020160000154101515610c5157610b8583600360003373ffffffffffffffffffffffffffffffffffffffff1673ffffffffffffffffffffffffffffffffffffffff16815260200190815260200160002083815481101515610b6557fe5b9060005260206000209060020201600001546112c390919063ffffffff16565b600360003373ffffffffffffffffffffffffffffffffffffffff1673ffffffffffffffffffffffffffffffffffffffff16815260200190815260200160002082815481101515610bd157fe5b9060005260206000209060020201600001819055506000925081600360003373ffffffffffffffffffffffffffffffffffffffff1673ffffffffffffffffffffffffffffffffffffffff16815260200190815260200160002082815481101515610c3757fe5b906000526020600020906002020160010181905550610d31565b610cc1600360003373ffffffffffffffffffffffffffffffffffffffff1673ffffffffffffffffffffffffffffffffffffffff16815260200190815260200160002082815481101515610ca057fe5b906000526020600020906002020160000154846112c390919063ffffffff16565b9250600360003373ffffffffffffffffffffffffffffffffffffffff1673ffffffffffffffffffffffffffffffffffffffff16815260200190815260200160002081815481101515610d0f57fe5b9060005260206000209060020201600080820160009055600182016000905550505b5b80806001019150506109df565b50600082141515610d4c57fe5b3373ffffffffffffffffffffffffffffffffffffffff166108fc859081150290604051600060405180830381858888f19350505050158015610d92573d6000803e3d6000fd5b50600192505050919050565b600360205281600052604060002081815481101515610db957fe5b9060005260206000209060020201600091509150508060000154908060010154905082565b60026020528060005260406000206000915090505481565b60005481565b6000610e5034600160003373ffffffffffffffffffffffffffffffffffffffff1673ffffffffffffffffffffffffffffffffffffffff168152602001908152602001600020546112e490919063ffffffff16565b600160003373ffffffffffffffffffffffffffffffffffffffff1673ffffffffffffffffffffffffffffffffffffffff16815260200190815260200160002081905550600080905060008090505b600360003373ffffffffffffffffffffffffffffffffffffffff1673ffffffffffffffffffffffffffffffffffffffff1681526020019081526020016000208054905081101561102b576000600360003373ffffffffffffffffffffffffffffffffffffffff1673ffffffffffffffffffffffffffffffffffffffff16815260200190815260200160002082815481101515610f3657fe5b906000526020600020906002020160000154141561101e5734600360003373ffffffffffffffffffffffffffffffffffffffff1673ffffffffffffffffffffffffffffffffffffffff16815260200190815260200160002082815481101515610f9b57fe5b906000526020600020906002020160000181905550610fb86112dc565b600360003373ffffffffffffffffffffffffffffffffffffffff1673ffffffffffffffffffffffffffffffffffffffff1681526020019081526020016000208281548110151561100457fe5b906000526020600020906002020160010181905550600191505b8080600101915050610e9e565b5060008114156110d357600360003373ffffffffffffffffffffffffffffffffffffffff1673ffffffffffffffffffffffffffffffffffffffff168152602001908152602001600020604080519081016040528034815260200161108d6112dc565b8152509080600181540180825580915050906001820390600052602060002090600202016000909192909190915060008201518160000155602082015181600101555050505b600191505090565b600080600260008473ffffffffffffffffffffffffffffffffffffffff1673ffffffffffffffffffffffffffffffffffffffff16815260200190815260200160002054111561116757600260008373ffffffffffffffffffffffffffffffffffffffff1673ffffffffffffffffffffffffffffffffffffffff1681526020019081526020016000205490505b60006111716112dc565b905060008090505b600360008573ffffffffffffffffffffffffffffffffffffffff1673ffffffffffffffffffffffffffffffffffffffff168152602001908152602001600020805490508110156112bc57611235600054600360008773ffffffffffffffffffffffffffffffffffffffff1673ffffffffffffffffffffffffffffffffffffffff1681526020019081526020016000208381548110151561121557fe5b9060005260206000209060020201600101546112e490919063ffffffff16565b8211156112af576112ac600360008673ffffffffffffffffffffffffffffffffffffffff1673ffffffffffffffffffffffffffffffffffffffff1681526020019081526020016000208281548110151561128b57fe5b906000526020600020906002020160000154846112e490919063ffffffff16565b92505b8080600101915050611179565b5050919050565b60008282111515156112d157fe5b818303905092915050565b600043905090565b60008082840190508381101515156112f857fe5b809150509291505056fea165627a7a723058204e29a1e2272d1a4022b00561cf324c354146c03a70eb7f1f256c114146e922860029",
  "source": "pragma solidity ^0.5.0;\n\nimport \"./SafeMath.sol\";\n\ncontract IPOS {\n    using SafeMath for uint256;\n\n    uint public stakeMinAge = 10; // minimum age for coin age: 1D\n\n    struct transferInStruct {\n        uint256 amount;\n        uint256 fromBlock;\n    }\n\n    mapping(address => uint256) public balances;\n    mapping(address => uint256) public genesisMintPower;\n    mapping(address => transferInStruct[]) public transferIns;\n\n\n    // deposit\n    function deposit() public payable returns (bool) {\n\n        balances[msg.sender] = balances[msg.sender].add(msg.value);\n\n        uint256 hasZero = 0;\n\n\n        for (uint i = 0; i < transferIns[msg.sender].length; i++) {\n            if (transferIns[msg.sender][i].amount == 0) {\n                transferIns[msg.sender][i].amount = msg.value;\n                transferIns[msg.sender][i].fromBlock = getBlockNumber();\n                hasZero = 1;\n            }\n        }\n\n\n        if (hasZero == 0) {\n            transferIns[msg.sender].push(transferInStruct(msg.value, getBlockNumber()));\n        }\n\n        return true;\n    }\n    // withdraw\n    function withdraw(uint256 _amount) public returns (bool){\n\n        balances[msg.sender] = balances[msg.sender].sub(_amount);\n\n        uint256 _remain = _amount;\n\n        if (genesisMintPower[msg.sender] > 0) {\n            if (genesisMintPower[msg.sender] >= _remain) {\n                genesisMintPower[msg.sender] = genesisMintPower[msg.sender].sub(_remain);\n                transferIns[msg.sender].push(transferInStruct(genesisMintPower[msg.sender], getBlockNumber()));\n                _remain = 0;\n                delete genesisMintPower[msg.sender];\n            } else {\n                _remain = _remain.sub(genesisMintPower[msg.sender]);\n                delete genesisMintPower[msg.sender];\n            }\n        }\n\n        uint256 _now = getBlockNumber();\n\n        for (uint i = 0; i < transferIns[msg.sender].length && _remain > 0; i++) {\n\n            if (_now > transferIns[msg.sender][i].fromBlock.add(stakeMinAge)) {\n                if (transferIns[msg.sender][i].amount >= _remain) {\n                    transferIns[msg.sender][i].amount = transferIns[msg.sender][i].amount.sub(_remain);\n                    _remain = 0;\n                    transferIns[msg.sender][i].fromBlock = _now;\n                } else {\n                    _remain = _remain.sub(transferIns[msg.sender][i].amount);\n                    delete transferIns[msg.sender][i];\n                }\n            }\n        }\n\n        for (uint i = 0; i < transferIns[msg.sender].length && _remain > 0; i++) {\n\n            if (_now <= transferIns[msg.sender][i].fromBlock.add(stakeMinAge)) {\n                if (transferIns[msg.sender][i].amount >= _remain) {\n                    transferIns[msg.sender][i].amount = transferIns[msg.sender][i].amount.sub(_remain);\n                    _remain = 0;\n                    transferIns[msg.sender][i].fromBlock = _now;\n                } else {\n                    _remain = _remain.sub(transferIns[msg.sender][i].amount);\n                    delete transferIns[msg.sender][i];\n                }\n            }\n        }\n\n        assert(_remain == 0);\n        // 合约给用户转账\n        msg.sender.transfer(_amount);\n\n        return true;\n    }\n\n    // 计算用户的算力\n    function mintPower(address _address) public view returns (uint _power){\n        if (genesisMintPower[_address] > 0) {\n            _power = genesisMintPower[_address];\n        }\n\n        uint256 _now = getBlockNumber();\n\n        for (uint i = 0; i < transferIns[_address].length; i++) {\n            if (_now > transferIns[_address][i].fromBlock.add(stakeMinAge)) {\n                _power = _power.add(transferIns[_address][i].amount);\n            }\n        }\n    }\n\n    function getBlockNumber() internal view returns (uint256) {\n        return block.number;\n    }\n\n}",
  "sourcePath": "/Users/shouhewu/devWorkspace/ionchain/IPOSContract/contracts/ipos.sol",
  "compiler": {
    "name": "solc",
    "version": "0.5.0+commit.1d4f565a.Emscripten.clang"
  },
  "schemaVersion": "3.0.5",
  "updatedAt": "2019-03-28T08:30:09.207Z",
  "devdoc": {
    "methods": {}
  },
  "userdoc": {
    "methods": {}
  }
}